:100000008A155828FF3FFF3F5030031383128800A2
:100010000130CC000630CD00D630CE000C30CF0001
:100020008A15CD228A110130E9000E30EA00313004
:10003000EB008A1565228A110130E9000F30EA00D1
:100040004308FF3A031D27283130F00029283030BB
:10005000F0007008EB008A1565228A118030430693
:10006000F0008030003A7002031C4B280230CC00B4
:100070000230CD003F30CE000C30CF008A15CD22AB
:100080008A110230E5000D30E6004308E7008A15CA
:10009000FB228A1156280230CC000530CD00863074
:1000A000CE000C30CF008A15CD228A110330CC004F
:1000B0000830CD00E730CE000C30CF008A15CD22BD
:1000C0008A110430E9000A30EA003030EB008A156A
:1000D00065228A11C5010530C40080304406F00055
:1000E0008030003A7002031CB6284508031DB6286C
:1000F0000430E5000B30E6004408E7008A15FB22D7
:100100008A110B30FC00FF30FB00FF30FA00FC0BC3
:100110008A289128FB0B8D289028FA0B8D288A2895
:1001200087283330FB00FF30FA00FB0B98289B2810
:10013000FA0B982895288830FA00FA0B9D28013090
:100140000805F1007108003A031DB1280030881835
:100150000130F1007108003A031DB1280130F000B0
:10016000B228F0017008C500C4036D280430E9000E
:100170000A30EA002030EB008A1565228A1104302B
:10018000E9000B30EA002030EB008A1565228A1165
:1001900045080319EF2880304306F0008030003A0C
:1001A0007002031CDA284308CC00CD018A15DE2337
:1001B0008A11EF2803138312C40180304406F00033
:1001C0008030103A70020318EF284408CC00CD01AB
:1001D0008A15DE238A1103138312C40ADD28031350
:1001E0008312450803190229303088000330CC00FF
:1001F0000630CD00C130CE000C30CF008A15CD22A4
:100200008A110F29903088000330CC000630CD00D1
:100210009D30CE000C30CF008A15CD228A111F30C0
:10022000FC00FF30FB00FF30FA00FC0B18291F29EF
:10023000FB0B1B291E29FA0B1B291829152998309D
:10024000FB00FF30FA00FB0B26292929FA0B26298F
:1002500023299E30FA00FA0B2B2900000000080029
:1002600003138312C9014808CC008A1512248A118D
:100270007008FF3A013003190030F40074080313CA
:10028000C9044808CC008A151A218A114408F400D0
:100290004508F5004608F6004708F7007008F40224
:1002A0007108031C710FF5027208031C720FF6022D
:1002B0007308031C730FF70200307702031D6A29CD
:1002C00000307602031D6A2904307502031D6A2975
:1002D000003074020130031C0030F0004908F004C3
:1002E0007008C90070080319832930308800013074
:1002F000CC000330CD005330CE000C30CF008A1537
:10030000CD228A11AB29503088000130CC00023058
:10031000CD005330CE000C30CF008A15CD228A118B
:100320000130E9000230EA002030EB008A15652236
:100330008A110130E9000330EA002030EB008A1511
:1003400065228A110130E9000430EA005630EB00E2
:100350008A1565228A110230CC000130CD00EF30C1
:10036000CE000C30CF008A15CD228A110230CC008D
:100370000930CD004308CE000630CF008A159C22FC
:100380008A110330CC000130CD00B530CE000C30E6
:10039000CF008A15CD228A110330CC000D30CD005C
:1003A0004408CE000430CF008A159C228A11043004
:1003B000CC000130CD00CC30CE000C30CF008A15FF
:1003C000CD228A110430E9001330EA003030EB000E
:1003D0008A1565228A110430E5001430E6004808C9
:1003E000E7008A15FB228A1149080319172A3330BE
:1003F000FC00FF30FB00FF30FA00FC0B002A072A4C
:10040000FB0B032A062AFA0B032A002AFD29FD30DA
:10041000FB00FF30FA00FB0B0E2A112AFA0B0E2A02
:100420000B2AB530FA00FA0B132A00004C2A4808B0
:10043000CC004408CD004508CE004608CF00470850
:10044000D000CD0A0319CE0A0319CF0A0319D00A26
:100450008A15E5218A1145241F30FC00FF30FB007E
:10046000FF30FA00FC0B352A3C2AFB0B382A3B2ACA
:10047000FA0B382A352A322A9830FB00FF30FA006E
:10048000FB0B432A462AFA0B432A402A9E30FA00E5
:10049000FA0B482A000000000800031383124508E5
:1004A000F0004608F100F201F301FF307005FA0098
:1004B000FF307105FB007208FC007308FD0000307E
:1004C000FC05FD057A08C8007B08C9004308F00058
:1004D0004408F1004508F2004608F300FF307005BB
:1004E000F600FF307105F7007208F8007308F90094
:1004F0000030F805F9057608CA007708CB002030EF
:100500003007F00031080318013F003FF100700888
:10051000A4007108A3000A08A2008A15FD248A110C
:10052000F00022088A00A40A0319A30A8A15FD24F0
:100530008A11F10022088A0070087A06F4007B080C
:100540007106F5007408C8007508C900223030072C
:10055000F00031080318013F003FF1007008A400CB
:100560007108A3000A08A2008A15FD248A11F00070
:1005700022088A00A40A0319A30A8A15FD248A11F5
:10058000F10022088A007608F0067708F106700864
:10059000CA007108CB007008F4067108F5067408EB
:1005A000C8007508C9007408F0067508F1067008DF
:1005B000CA007108CB0070087406C800750871067F
:1005C000C9000F30C70080304706F0008030003A85
:1005D0007002031C412B4A084806F40049084B06E8
:1005E000F5007408C8007508C90074084A06F000D0
:1005F0004B087506F1007008CA007108CB0074083A
:10060000F0067508F1067008C8007108C900700886
:10061000CC007108CD0055237008CA067108CB06BE
:100620000130F4004708F0000030F01BFF30F1000B
:1006300074080319202BF00DF10D7010FF3F192BDA
:100640003008F00731080318013FF1077008A400D3
:100650007108A3000A08A2008A15FD248A11F0007F
:1006600022088A00A40A0319A30A8A15FD248A1104
:10067000F10022088A007008C8067108C906C7037D
:10068000E32A4808F6004908F700F801F90177085D
:10069000F3007608F200F001F1014A08F0044B087B
:1006A000F1040030F204F3040800031383124C0831
:1006B000F0004D08F1000F307005F3004C08F00019
:1006C0004D08F100F10CF00CF113F10CF00CF113EA
:1006D000F10CF00CF113F10CF00CF1130F3070056C
:1006E000D2004D08F000F1010F307005D1000C3040
:1006F000F2004C08F0004D08F10072080319852B38
:10070000F10CF00CF113FF3F7E2B0F307005D00081
:100710000130F4007308F0000030F01BFF30F100EE
:1007200074080319982BF00DF10D7010FF3F912BF9
:100730002508F00726080318013FF1077008A400F8
:100740007108A3000A08A2008A15FD248A11CE00B0
:1007500022088A00A40A0319A30A8A15FD248A1113
:10076000CF0022088A000130F4005208F000003067
:10077000F01BFF30F10074080319C32BF00DF10DCD
:100780007010FF3FBC2B2708F00728080318013F13
:10079000F1077008A4007108A3000A08A2008A15D6
:1007A000FD248A11F00022088A00A40A0319A30A72
:1007B0008A15FD248A11F10022088A007008CE07EC
:1007C00071080318013FCF070130F4005108F00011
:1007D0000030F01BFF30F10074080319F42BF00D0A
:1007E000F10D7010FF3FED2B2908F0072A080318C0
:1007F000013FF1077008A4007108A3000A08A200D5
:100800008A15FD248A11F00022088A00A40A03191F
:10081000A30A8A15FD248A11F10022088A007008B3
:10082000CE067108CF060130F4005008F000003009
:10083000F01BFF30F10074080319232CF00DF10DAB
:100840007010FF3F1C2C2B08F0072C080318013FE9
:10085000F1077008A4007108A3000A08A2008A1515
:10086000FD248A11F00022088A00A40A0319A30AB1
:100870008A15FD248A11F10022088A004E08F0072B
:100880004F080318013FF107080003138312CC013E
:10089000003008190130F1007108003A031DD22C14
:1008A000803087000230FC00FF30FB00FF30FA0090
:1008B000FC0B5B2C622CFB0B5E2C612CFA0B5E2C70
:1008C0005B2C582C8730FB00FF30FA00FB0B692CA7
:1008D0006C2CFA0B692C662C9330FA00FA0B6E2CF8
:1008E000000087010430FC00FF30FB00FF30FA00FD
:1008F000FC0B7B2C822CFB0B7E2C812CFA0B7E2C90
:100900007B2C782C1030FB00FF30FA00FB0B892C7D
:100910008C2CFA0B892C862C2630FA00FA0B8E2CA4
:10092000003008190130F1007108003A031DB32CA2
:10093000803087008030643AF00080304C067002CE
:10094000031CB32C0D30FB00FF30FA00FB0BA92C6D
:10095000AC2CFA0BA92CA62CF330FA00FA0BAE2C17
:100960000000CC0A902C87010B30FC00FF30FB000C
:10097000FF30FA00FC0BBD2CC42CFB0BC02CC32C8D
:10098000FA0BC02CBD2CBA2C3330FB00FF30FA0020
:10099000FB0BCB2CCE2CFA0BCB2CC82C8830FA00BE
:1009A000FA0BD02C403087000B30FC00FF30FB00EE
:1009B000FF30FA00FC0BDD2CE42CFB0BE02CE32CCD
:1009C000FA0BE02CDD2CDA2C3330FB00FF30FA0080
:1009D000FB0BEB2CEE2CFA0BEB2CE82C8830FA00FE
:1009E000FA0BF02C8701003008190130F100710872
:1009F000003A031DFE2C3030F000002D9030F00046
:100A00007008880008000313831243088400013033
:100A10008000C401C5012D08840000180D2D001CA4
:100A20000F2D2E08C400C40CC4138A15DF248A11AC
:100A3000C4034408031D152D001C08002F08C40022
:100A40008A15DF248A11C4034408031D202D001CCD
:100A500008002F08C4008A15DF248A11C403440843
:100A6000031D2B2D00180800C5012D0884002F0838
:100A7000C4008A15DF248A11C4034408031D392DDC
:100A8000C5010018C5172F08C4008A15DF248A1174
:100A9000C4034408031D452D450803194F2D0018B4
:100AA00045172F08C4008A15DF248A11C40344089F
:100AB000031D532D450803195D2D0018C5162F0879
:100AC000C4008A15DF248A11C4034408031D612D64
:100AD000450803196B2D001845162F08C4008A1508
:100AE000DF248A11C4034408031D6F2D4508031930
:100AF000792D0018C5152F08C4008A15DF248A1126
:100B0000C4034408031D7D2D45080319872D0018D3
:100B100045152F08C4008A15DF248A11C403440830
:100B2000031D8B2D45080319952D0018C5142F089A
:100B3000C4008A15DF248A11C4034408031D992DBB
:100B400045080319A32D00184514430884008001AB
:100B50004508F000080003138312B9013808840027
:100B60000008BA00840A0008BB00840A0008BC0020
:100B7000840A0008BD000430380784000008BE0065
:100B80000F30BE050C30EC008A15DC208A110230D3
:100B9000EC008A15DC208A113A08C3003B08C40027
:100BA0003C08C5003D08C6004D227008BA00710817
:100BB000BB007208BC007308BD000818E92D0030A6
:100BC00088180130F40074080319E92D0130B900C8
:100BD000012E01300805F0000319F32D8818F32DBC
:100BE0000230B900012E01300805F0000319012E72
:100BF000003088180130F40074080319012E033006
:100C0000B9003908003A031D132E3808C3003A080A
:100C1000C4003B08C5003C08C6003D08C7003E08AC
:100C2000C80030213B2E3908013A031D252E380813
:100C3000C3003A08C4003B08C5003C08C6003D0894
:100C4000C7003E08C80049263B2E0313831239080B
:100C5000023A03192F2E3908033A031D3B2E390897
:100C6000033A031D362EFF30F000382E3E08F00008
:100C70007008C3000420031383120130EC008A15AE
:100C8000DC208A110830EC008A15DC208A118801EA
:100C9000080090300313831288000130CC00063026
:100CA000CD00D630CE000C30CF008A15CD228A116F
:100CB0000130E9000E30EA003030EB008A15652281
:100CC0008A110130E9000F30EA003130EB008A155B
:100CD00065228A110230CC000430CD007630CE007F
:100CE0000C30CF008A15CD228A110330CC000130A0
:100CF000CD00B530CE000C30CF008A15CD228A1140
:100D00000330CC000D30CD004408CE000430CF00BD
:100D10008A159C228A110430CC000130CD00CC30E1
:100D2000CE000C30CF008A15CD228A110430E900A4
:100D30001330EA003030EB008A1565228A11043046
:100D4000E5001430E6004808E7008A15FB228A1106
:100D50004808CC004408CD004508CE004608CF0026
:100D60004708D000CD0A0319CE0A0319CF0A031988
:100D7000D00A8A15E5218A114808CC00FF30CD0041
:100D80008A15DE238A113330FC00FF30FB00FF3070
:100D9000FA00FC0BCC2ED32EFB0BCF2ED22EFA0B4F
:100DA000CF2ECC2EC92EFD30FB00FF30FA00FB0BFE
:100DB000DA2EDD2EFA0BDA2ED72EB530FA00FA0B2A
:100DC000DF2E000008008A1565248A118A15652423
:100DD0008A118A1565248A113808A0003808840011
:100DE000841780110011001080130013801200126C
:100DF0008413801100110010801300138012001260
:100E000080160016801580118A1565248A118015B8
:100E100080118A1565248A11801580118A15652430
:100E20008A1180160012801580118A1565248A1196
:100E30008001801680158011800180178015801137
:100E40008A1565248A1180010016801580118001A1
:100E5000801580118A1565248A1180018015801102
:100E60000016801580118A1565248A11800180156D
:100E700080110016801600178017801580118A15C2
:100E800065248A110130A1000800FF3FFF3FFF3FAA
:100E9000FF3FFF3FFF3FFF3FFF3FFF3FFF3FFF3F62
:100EA000FF3FFF3FFF3FFF3FFF3FFF3FFF3FFF3F52
:100EB000FF3FFF3FFF3FFF3FFF3FFF3FFF3FFF3F42
:100EC000FF3FFF3FFF3FFF3FFF3FFF3FFF3FFF3F32
:100ED000FF3FFF3FFF3FFF3FFF3FFF3FFF3FFF3F22
:100EE000FF3FFF3FFF3FFF3FFF3FFF3FFF3FFF3F12
:100EF000FF3FFF3FFF3FFF3FFF3FFF3FFF3FFF3F02
:100F0000FF3FFF3FFF3FFF3FFF3FFF3FFF3FFF3FF1
:100F1000FF3FFF3FFF3FFF3FFF3FFF3FFF3FFF3FE1
:100F2000FF3FFF3FFF3FFF3FFF3FFF3FFF3FFF3FD1
:100F3000FF3FFF3FFF3FFF3FFF3FFF3FFF3FFF3FC1
:100F4000FF3FFF3FFF3FFF3FFF3FFF3FFF3FFF3FB1
:100F5000FF3FFF3FFF3FFF3FFF3FFF3FFF3FFF3FA1
:100F6000FF3FFF3FFF3FFF3FFF3FFF3FFF3FFF3F91
:100F7000FF3FFF3FFF3FFF3FFF3FFF3FFF3FFF3F81
:100F8000FF3FFF3FFF3FFF3FFF3FFF3FFF3FFF3F71
:100F9000FF3FFF3FFF3FFF3FFF3FFF3FFF3FFF3F61
:100FA000FF3FFF3FFF3FFF3FFF3FFF3FFF3FFF3F51
:100FB000FF3FFF3FFF3FFF3FFF3FFF3FFF3FFF3F41
:100FC000FF3FFF3FFF3FFF3FFF3FFF3FFF3FFF3F31
:100FD000FF3FFF3FFF3FFF3FFF3FFF3FFF3FFF3F21
:100FE000FF3FFF3FFF3FFF3FFF3FFF3FFF3FFF3F11
:100FF000FF3FFF3FFF3FFF3FFF3FFF3FFF3FFF3F01
:1010000003138312C301C401C5012D088400001815
:101010000728001C0928C30ADF24000000180B2839
:10102000001C1028C40ADF240000001812284308FE
:10103000F100F10CF113F10CF1134408C500C50CDB
:10104000C513C50CC5134308F107F2010318F20AD2
:1010500080307206F00080307002031D3128440891
:10106000710203183A284308003C03183928430842
:10107000AE00512845084407F100F2010318F20AB6
:1010800080307206F00080307002031D492843084A
:101090007102031851284408003C031851284408E1
:1010A000AE002E08AF00AF0D2F102E08F000080084
:1010B0000313831287018316860187010730880096
:1010C00006308312B8008A11E3268A150130EC003D
:1010D000DC200C30EC00DC200830EC00DC201C3084
:1010E000B8000B30B9008330BA000B30BB00413080
:1010F000BC000B30BD006230BE000B30BF00A4301E
:10110000C0000B30C10028240630B800C523803051
:10111000AF004030AE003230B800A42132300313AB
:101120008312B8008A11AB258A158B2896283A308D
:1011300003138312C3008A1103258A157008963A97
:10114000031DD3283A08031DD3280130B900B80184
:1011500080303806F0008030063A70020318C42848
:1011600038083C3FC2003A30C3008A1103258A1573
:1011700042088400700880003A080319C228BB0A9C
:10118000B901C428B80AA8283908013A031DD22891
:101190003C30C3000530C400232270084106031D03
:1011A000D228DB28DA28BB0A3B08083C0318DA28D7
:1011B0000020BB0197280800031383122008840035
:1011C0006C080319E32880110011801300138012AA
:1011D0000012EC1B80176C1B0017EC1A80166C1A9F
:1011E000001621080319F6280011F72800158015AC
:1011F00004256C080319FC288011001180130013CA
:1012000080120012EC1980176C190017EC18801668
:101210006C180016210803190F2900111029001558
:10122000801504258011210803191829652419291E
:10123000F62408004E3003138312D2000230F4006B
:101240004C08F0000030F01BFF30F1007408031967
:101250002E29F00DF10D7010FF3F27297008D300E3
:101260007108D400CD0180304D06F0008030043A82
:101270007002031858293430FB00FF30FA00FB0BD2
:1012800042294529FA0B42293F29CF30FA00FA0BAF
:10129000472900004D085207D5004D085307E500C7
:1012A000A92403135508840070088000CD0A33294F
:1012B0004E08F0004F08F1005008F2005108F3000A
:1012C00008007329803003138312E5008629C0309B
:1012D000E50086299430E5008629D430E50086298A
:1012E0008030E5008629031383126508013A03194B
:1012F00062296508023A031967296508033A031948
:101300006A296508043A03196D2970296603F000FB
:101310006508F0077008E5007008EC00DC20A1010A
:10132000E8016808670784000008F00070080319E6
:10133000A1296808670784000008E9009424E80AE6
:1013400091290130A10008003B3003138312C30030
:101350008A1103258A157008963A0319B3293B08A8
:101360000319B329A4290130BA00B9018030390624
:10137000F0008030063A70020318D1293908380786
:10138000BC003B30C3008A1103258A153C08840049
:10139000700880003B080319CF29BA01D129B90A86
:1013A000B6293A080319E3293808C3000530C400F8
:1013B00023220530380784000008F2007008720606
:1013C000031DE3290800A42908004D3003138312EC
:1013D000D2000230F4004C08F0000030F01BFF3067
:1013E000F10074080319F929F00DF10D7010FF3F99
:1013F000F2297008D3007108D400D1018030510661
:10140000F0008030043A70020318222A3430FB00C6
:10141000FF30FA00FB0B0D2A102AFA0B0D2A0A2ABC
:10142000CF30FA00FA0B122A000051085307E500EA
:101430005108520784000008E600F62303138312C4
:10144000D10AFE290800FF3003138312C900C50129
:1014500080304506F00080304406700203184F2AA1
:101460004508430784000008C800C60180304606CE
:10147000F0008030083A700203184D2A4908C7006E
:10148000C90D4910C81F452AC90AC80D4810C71FF1
:101490004B2A8D30C906C60A362AC50A282AC60133
:1014A00080304606F0008030083A70020318622A45
:1014B0004908C700C90D4910C71F602A8D30C906E9
:1014C000C60A502A4908F0000800772A8030031322
:1014D0008312E9008A2AC030E9008A2A9430E900A0
:1014E0008A2AD430E9008A2A8030E9008A2A031344
:1014F00083126908013A0319662A6908023A031936
:101500006B2A6908033A03196E2A6908043A031919
:10151000712A742A6A03F0006908F0077008E9006C
:101520000130A1007008EC00DC20A1016B08EC0088
:10153000DC200130A100080003138312D0018030A9
:101540005006F00080304F0670020318CC2A4C0879
:10155000E5004D08E60050084E0784000008E7004B
:101560000F30E705FB22CD0A4C08E5004D08E600E8
:1015700050084E0784000008E7000430F0007008AF
:101580000319C62AE70CE713FF3FC02A0F30E7050F
:10159000FB22CD0AD00A9F2A080003138312E4011C
:1015A0006408503FF20064084E07F0004F0803182B
:1015B000013FF1007008A4007108A3000A08A2000E
:1015C000FD24F00022088A00720884007008800060
:1015D0006408F000E40A7008503F84000008F0003E
:1015E0007008031DD02A4C08E5004D08E600503075
:1015F000E70061210800031383126508E90066080B
:10160000EA0080306706F00080300A3A7002031862
:10161000102B6708303FF0007008F100F201182B22
:101620006708413FF0000A30F0027008F100F20153
:101630007108EB00652208000034003400340034E7
:1016400000340034003400340034003400340034FA
:1016500000340034003400340034003400340034EA
:1016600000340034003400340034003400340034DA
:1016700000340034003400340034003400340034CA
:1016800008000034003400340034003400340034E6
:1016900000340034003400340034003400340034AA
:1016A000003400340034003400340034003400349A
:1016B000003400340034003400340034003400348A
:1016C00000340800003400340034003400340034A6
:1016D000003400340034003400340034003400346A
:1016E000003400340034003400340034003400345A
:1016F000003400340034003400340034003400344A
:101700000034003408000034003400340034003465
:101710000034003400340034003400340034003429
:101720000034003400340034003400340034003419
:101730000034003400340034003400340034003409
:101740000034003400340800003400340034003425
:1017500000340034003400340034003400340034E9
:1017600000340034003400340034003400340034D9
:1017700000340034003400340034003400340034C9
:101780000034003400340034080003138312B9011C
:101790003808840000000408AD00841700140020FD
:1017A0007008031DDC2BB90A3908643C0318DB2BD5
:1017B0000130F0000800CF2BF00108003430031393
:1017C0008312FB00FF30FA00FB0BE72BEA2BFA0B2E
:1017D000E72BE42BCF30FA00FA0BEC2B00004C087F
:1017E000403FE5004D08E600F6230800000003171F
:1017F00083168C1CFD2B0000F72B03138312650846
:1018000003178D000313660803178C0083168C13CF
:101810000C158B1355308D00AA308D008C148B174E
:101820000C110800343003138312FB00FF30FA0060
:10183000FB0B1B2C1E2CFA0B1B2C182CCF30FA0088
:10184000FA0B202C00004C08403FE500A9240800BA
:10185000031383123808B0003908B1003A08A50014
:101860003B08A6003C08A7003D08A8003E08A900C8
:101870003F08AA004008AB004108AC000800433410
:10188000683461346E346E3465346C3420343034F2
:1018900078343034583420345234653473346534F9
:1018A00074340034080049346E34763461346C3456
:1018B00069346434203450346134733473344334C1
:1018C0006F3464346534003408000F30031383121E
:1018D000FB00FF30FA00FB0B6E2C712CFA0B6E2C08
:1018E0006B2C3E30FA00FA0B732C0800533474341E
:1018F0006F3472346534203450346134733473344B
:1019000043346F3464346534003408004D3461343A
:10191000733474346534723420345234653473341F
:10192000653474340034080003138312A10169087C
:10193000EC00DC200130A100080043346F346D342A
:1019400070346C3465347434653464342134003458
:10195000080003138312650803178D0083168C1388
:101960000C1483120C08F000080045346E347434F3
:101970007234793420344B34653479343A34003459
:101980000800433461346E34633465346C34653438
:1019900064342134003408004334683461346E34D4
:1019A0006E3465346C343A340034080043346F3498
:1019B0006D346D3461346E346434003408000630A4
:1019C00003138312FA00FA0BE32C000008004134E1
:1019D00062346F34723474343F340034080043345A
:1019E0006F34643465343A34003408002130031312
:1019F0008312FA00FA0BFA2C08000313831223084F
:101A00008A00240882000800000000000800FF3F50
:02400E00723FFF
:00000001FF
