:100000008A156228FF3FFF3F503003138312880098
:100010000130CC000630CD00D330CE000C30CF0004
:100020008A15D9228A110130E9000E30EA003130F8
:10003000EB008A1571228A110130E9000F30EA00C5
:100040004308FF3A031D27283130F00029283030BB
:10005000F0007008EB008A1571228A118030430687
:10006000F0008030003A7002031C4B280230CC00B4
:100070000230CD004D30CE000C30CF008A15D92291
:100080008A110230E5000D30E6004308E7008A15CA
:1000900007238A1156280230CC000530CD0083306A
:1000A000CE000C30CF008A15D9228A110330CC0043
:1000B0000830CD00E430CE000C30CF008A15D922B4
:1000C0008A110430E9000A30EA003030EB008A156A
:1000D00071228A11C5010530C40080304406F00049
:1000E0008030003A7002031CB6284508031DB6286C
:1000F0000430E5000B30E6004408E7008A150723CA
:100100008A110B30FC00FF30FB00FF30FA00FC0BC3
:100110008A289128FB0B8D289028FA0B8D288A2895
:1001200087283330FB00FF30FA00FB0B98289B2810
:10013000FA0B982895288830FA00FA0B9D28013090
:100140000805F1007108003A031DB1280030881835
:100150000130F1007108003A031DB1280130F000B0
:10016000B228F0017008C500C4036D280430E9000E
:100170000A30EA002030EB008A1571228A1104301F
:10018000E9000B30EA002030EB008A1571228A1159
:1001900045080319EF2880304306F0008030003A0C
:1001A0007002031CDA284308CC00CD018A15EC2329
:1001B0008A11EF2803138312C40180304406F00033
:1001C0008030103A70020318EF284408CC00CD01AB
:1001D0008A15EC238A1103138312C40ADD28031342
:1001E0008312450803190229303088000330CC00FF
:1001F0000630CD00BE30CE000C30CF008A15D9229B
:100200008A110F29903088000330CC000630CD00D1
:100210009A30CE000C30CF008A15D9228A111F30B7
:10022000FC00FF30FB00FF30FA00FC0B18291F29EF
:10023000FB0B1B291E29FA0B1B291829152998309D
:10024000FB00FF30FA00FB0B26292929FA0B26298F
:1002500023299E30FA00FA0B2B2900000000080029
:1002600003138312C9014808CC008A1520248A117F
:100270007008FF3A013003190030F40074080313CA
:10028000C9044808CC008A1526218A114408F400C4
:100290004508F5004608F6004708F7007008F40224
:1002A0007108031C710FF5027208031C720FF6022D
:1002B0007308031C730FF70200307702031D6A29CD
:1002C00000307602031D6A2904307502031D6A2975
:1002D000003074020130031C0030F0004908F004C3
:1002E0007008C90070080319832930308800013074
:1002F000CC000330CD006130CE000C30CF008A1529
:10030000D9228A11AB29503088000130CC0002304C
:10031000CD006130CE000C30CF008A15D9228A1171
:100320000130E9000230EA002030EB008A1571222A
:100330008A110130E9000330EA002030EB008A1511
:1003400071228A110130E9000430EA005630EB00D6
:100350008A1571228A110230CC000130CD00EC30B8
:10036000CE000C30CF008A15D9228A110230CC0081
:100370000930CD004308CE000630CF008A15A822F0
:100380008A110330CC000130CD00B230CE000C30E9
:10039000CF008A15D9228A110330CC000D30CD0050
:1003A0004430CE000430CF008A15A8228A110430D0
:1003B000CC000130CD00C930CE000C30CF008A1502
:1003C000D9228A110430E9001330EA003030EB0002
:1003D0008A1571228A110430E5001430E6004808BD
:1003E000E7008A1507238A1149080319172A3330B1
:1003F000FC00FF30FB00FF30FA00FC0B002A072A4C
:10040000FB0B032A062AFA0B032A002AFD29FD30DA
:10041000FB00FF30FA00FB0B0E2A112AFA0B0E2A02
:100420000B2AB530FA00FA0B132A00004C2A4808B0
:10043000CC004408CD004508CE004608CF00470850
:10044000D000CD0A0319CE0A0319CF0A0319D00A26
:100450008A15F1218A1145241F30FC00FF30FB0072
:10046000FF30FA00FC0B352A3C2AFB0B382A3B2ACA
:10047000FA0B382A352A322A9830FB00FF30FA006E
:10048000FB0B432A462AFA0B432A402A9E30FA00E5
:10049000FA0B482A000000000800031383124508E5
:1004A000F0004608F100F201F301FF307005FA0098
:1004B000FF307105FB007208FC007308FD0000307E
:1004C000FC05FD057A08C8007B08C9004308F00058
:1004D0004408F1004508F2004608F300FF307005BB
:1004E000F600FF307105F7007208F8007308F90094
:1004F0000030F805F9057608CA007708CB002030EF
:100500003007F00031080318013F003FF100700888
:10051000A4007108A3000A08A2008A15FA248A110F
:10052000F00022088A00A40A0319A30A8A15FA24F3
:100530008A11F10022088A0070087A06F4007B080C
:100540007106F5007408C8007508C900223030072C
:10055000F00031080318013F003FF1007008A400CB
:100560007108A3000A08A2008A15FA248A11F00073
:1005700022088A00A40A0319A30A8A15FA248A11F8
:10058000F10022088A007608F0067708F106700864
:10059000CA007108CB007008F4067108F5067408EB
:1005A000C8007508C9007408F0067508F1067008DF
:1005B000CA007108CB0070087406C800750871067F
:1005C000C9000F30C70080304706F0008030003A85
:1005D0007002031C412B4A084806F40049084B06E8
:1005E000F5007408C8007508C90074084A06F000D0
:1005F0004B087506F1007008CA007108CB0074083A
:10060000F0067508F1067008C8007108C900700886
:10061000CC007108CD0055237008CA067108CB06BE
:100620000130F4004708F0000030F01BFF30F1000B
:1006300074080319202BF00DF10D7010FF3F192BDA
:100640003008F00731080318013FF1077008A400D3
:100650007108A3000A08A2008A15FA248A11F00082
:1006600022088A00A40A0319A30A8A15FA248A1107
:10067000F10022088A007008C8067108C906C7037D
:10068000E32A4808F6004908F700F801F90177085D
:10069000F3007608F200F001F1014A08F0044B087B
:1006A000F1040030F204F3040800031383124C0831
:1006B000F0004D08F1000F307005F3004C08F00019
:1006C0004D08F100F10CF00CF113F10CF00CF113EA
:1006D000F10CF00CF113F10CF00CF1130F3070056C
:1006E000D2004D08F000F1010F307005D1000C3040
:1006F000F2004C08F0004D08F10072080319852B38
:10070000F10CF00CF113FF3F7E2B0F307005D00081
:100710000130F4007308F0000030F01BFF30F100EE
:1007200074080319982BF00DF10D7010FF3F912BF9
:100730002508F00726080318013FF1077008A400F8
:100740007108A3000A08A2008A15FA248A11CE00B3
:1007500022088A00A40A0319A30A8A15FA248A1116
:10076000CF0022088A000130F4005208F000003067
:10077000F01BFF30F10074080319C32BF00DF10DCD
:100780007010FF3FBC2B2708F00728080318013F13
:10079000F1077008A4007108A3000A08A2008A15D6
:1007A000FA248A11F00022088A00A40A0319A30A75
:1007B0008A15FA248A11F10022088A007008CE07EF
:1007C00071080318013FCF070130F4005108F00011
:1007D0000030F01BFF30F10074080319F42BF00D0A
:1007E000F10D7010FF3FED2B2908F0072A080318C0
:1007F000013FF1077008A4007108A3000A08A200D5
:100800008A15FA248A11F00022088A00A40A031922
:10081000A30A8A15FA248A11F10022088A007008B6
:10082000CE067108CF060130F4005008F000003009
:10083000F01BFF30F10074080319232CF00DF10DAB
:100840007010FF3F1C2C2B08F0072C080318013FE9
:10085000F1077008A4007108A3000A08A2008A1515
:10086000FA248A11F00022088A00A40A0319A30AB4
:100870008A15FA248A11F10022088A004E08F0072E
:100880004F080318013FF107080003138312CC013E
:10089000CD01003008190130F1007108003A031D44
:1008A000D92C803087000230FC00FF30FB00FF3085
:1008B000FA00FC0B5C2C632CFB0B5F2C622CFA0BFC
:1008C0005F2C5C2C592C8730FB00FF30FA00FB0BAF
:1008D0006A2C6D2CFA0B6A2C672C9330FA00FA0BF9
:1008E0006F2C000087010430FC00FF30FB00FF305C
:1008F000FA00FC0B7C2C832CFB0B7F2C822CFA0B3C
:100900007F2C7C2C792C1030FB00FF30FA00FB0B85
:100910008A2C8D2CFA0B8A2C872C2630FA00FA0BA5
:100920008F2C003008190130F1007108003A031DC6
:10093000BA2C803087008030003AF00080304D06BD
:100940007002031DA52C4C08FA3C031CBA2C0D3078
:10095000FB00FF30FA00FB0BAE2CB12CFA0BAE2CD7
:10096000AB2CF330FA00FA0BB32C0000CC0A0319BD
:10097000CD0A912C87010B30FC00FF30FB00FF30CB
:10098000FA00FC0BC42CCB2CFB0BC72CCA2CFA0B8B
:10099000C72CC42CC12C3330FB00FF30FA00FB0BFA
:1009A000D22CD52CFA0BD22CCF2C8830FA00FA0B93
:1009B000D72C403087000B30FC00FF30FB00FF30AD
:1009C000FA00FC0BE42CEB2CFB0BE72CEA2CFA0BCB
:1009D000E72CE42CE12C3330FB00FF30FA00FB0B5A
:1009E000F22CF52CFA0BF22CEF2C8830FA00FA0BD3
:1009F000F72C8701003008190130F1007108003A26
:100A0000031D052D3030F000072D9030F0007008E8
:100A1000880008000313831243088400013080001B
:100A2000C401C5012D0884000018142D001C162DCA
:100A30002E08C400C40CC4138A15DC248A11C40314
:100A40004408031D1C2D001C08002F08C4008A1533
:100A5000DC248A11C4034408031D272D001C080050
:100A60002F08C4008A15DC248A11C4034408031D1E
:100A7000322D00180800C5012D0884002F08C4007D
:100A80008A15DC248A11C4034408031D402DC501C6
:100A90000018C5172F08C4008A15DC248A11C40366
:100AA0004408031D4C2D45080319562D0018451701
:100AB0002F08C4008A15DC248A11C4034408031DCE
:100AC0005A2D45080319642D0018C5162F08C400B7
:100AD0008A15DC248A11C4034408031D682D4508C7
:100AE0000319722D001845162F08C4008A15DC243E
:100AF0008A11C4034408031D762D45080319802D6F
:100B00000018C5152F08C4008A15DC248A11C403F7
:100B10004408031D842D450803198E2D0018451522
:100B20002F08C4008A15DC248A11C4034408031D5D
:100B3000922D450803199C2D0018C5142F08C400D8
:100B40008A15DC248A11C4034408031DA02D45081E
:100B50000319AA2D00184514430884008001450894
:100B6000F000080003138312B9013808840000085C
:100B7000BA00840A0008BB00840A0008BC00840A8A
:100B80000008BD000430380784000008BE000F30A4
:100B9000BE050C30EC008A15E6208A110230EC000C
:100BA0008A15E6208A113A08C3003B08C4003C08B5
:100BB000C5003D08C6004D227008BA007108BB0090
:100BC0007208BC007308BD000818F02D00308818AA
:100BD0000130F40074080319F02D0130B900082E1B
:100BE00001300805F0000319FA2D8818FA2D02309B
:100BF000B900082E01300805F0000319082E003056
:100C000088180130F40074080319082E0330B90065
:100C10003908003A031D1A2E3808C3003A08C400E8
:100C20003B08C5003C08C6003D08C7003E08C80098
:100C30003021422E3908013A031D2C2E3808C300FA
:100C40003A08C4003B08C5003C08C6003D08C70080
:100C50003E08C8005026422E031383123908023A78
:100C60000319362E3908033A031D422E3908033A78
:100C7000031D3D2EFF30F0003F2E3E08F0007008AF
:100C8000C3000420031383120130EC008A15E62010
:100C90008A110830EC008A15E6208A1188010800C4
:100CA00090300313831288000130CC000630CD0051
:100CB000D330CE000C30CF008A15D9228A110130F2
:100CC000E9000E30EA003030EB008A1571228A11FB
:100CD0000130E9000F30EA003130EB008A15712253
:100CE0008A110230CC000430CD007330CE000C30BD
:100CF000CF008A15D9228A110330CC000130CD00F3
:100D0000B230CE000C30CF008A15D9228A110330C0
:100D1000CC000D30CD004430CE000430CF008A1519
:100D2000A8228A110430CC000130CD00C930CE0099
:100D30000C30CF008A15D9228A110430E900133013
:100D4000EA003030EB008A1571228A110430E50088
:100D50001430E6004808E7008A1507238A1148087E
:100D6000CC004408CD004508CE004608CF00470817
:100D7000D000CD0A0319CE0A0319CF0A0319D00AED
:100D80008A15F1218A114808CC00FF30CD008A1560
:100D9000EC238A113330FC00FF30FB00FF30FA00F7
:100DA000FC0BD32EDA2EFB0BD62ED92EFA0BD62E19
:100DB000D32ED02EFD30FB00FF30FA00FB0BE12ECE
:100DC000E42EFA0BE12EDE2EB530FA00FA0BE62EF9
:100DD0000000080003138312C301C401C5012D08DC
:100DE00084000018F12E001CF32EC30A8A15DC249F
:100DF0008A1100000018F52E001CFC2EC40A8A156A
:100E0000DC248A1100000018FE2E4308F100F10CCA
:100E1000F113F10CF1134408C500C50CC513C50C42
:100E2000C5134308F107F2010318F20A8030720675
:100E3000F00080307002031D1F2F44087102031858
:100E4000282F4308003C0318272F4308AE003F2FEC
:100E500045084407F100F2010318F20A80307206D7
:100E6000F00080307002031D372F43087102031811
:100E70003F2F4408003C03183F2F4408AE002E08C3
:100E8000AF00AF0D2F102E08F00008000F30031335
:100E90008312FB00FF30FA00FB0B4F2F522FFA0B8F
:100EA0004F2F4C2F3E30FA00FA0B542F0800FF3F13
:100EB000FF3FFF3FFF3FFF3FFF3FFF3FFF3FFF3F42
:100EC000FF3FFF3FFF3FFF3FFF3FFF3FFF3FFF3F32
:100ED000FF3FFF3FFF3FFF3FFF3FFF3FFF3FFF3F22
:100EE000FF3FFF3FFF3FFF3FFF3FFF3FFF3FFF3F12
:100EF000FF3FFF3FFF3FFF3FFF3FFF3FFF3FFF3F02
:100F0000FF3FFF3FFF3FFF3FFF3FFF3FFF3FFF3FF1
:100F1000FF3FFF3FFF3FFF3FFF3FFF3FFF3FFF3FE1
:100F2000FF3FFF3FFF3FFF3FFF3FFF3FFF3FFF3FD1
:100F3000FF3FFF3FFF3FFF3FFF3FFF3FFF3FFF3FC1
:100F4000FF3FFF3FFF3FFF3FFF3FFF3FFF3FFF3FB1
:100F5000FF3FFF3FFF3FFF3FFF3FFF3FFF3FFF3FA1
:100F6000FF3FFF3FFF3FFF3FFF3FFF3FFF3FFF3F91
:100F7000FF3FFF3FFF3FFF3FFF3FFF3FFF3FFF3F81
:100F8000FF3FFF3FFF3FFF3FFF3FFF3FFF3FFF3F71
:100F9000FF3FFF3FFF3FFF3FFF3FFF3FFF3FFF3F61
:100FA000FF3FFF3FFF3FFF3FFF3FFF3FFF3FFF3F51
:100FB000FF3FFF3FFF3FFF3FFF3FFF3FFF3FFF3F41
:100FC000FF3FFF3FFF3FFF3FFF3FFF3FFF3FFF3F31
:100FD000FF3FFF3FFF3FFF3FFF3FFF3FFF3FFF3F21
:100FE000FF3FFF3FFF3FFF3FFF3FFF3FFF3FFF3F11
:100FF000FF3FFF3FFF3FFF3FFF3FFF3FFF3FFF3F01
:101000008A1146278A158A1146278A158A1146278A
:101010008A153808A0003808840084178011001150
:10102000001080130013801200128413801100112D
:101030000010801300138012001280160016801515
:1010400080118A1146278A15801580118A1146273A
:101050008A15801580118A1146278A15801600127C
:10106000801580118A1146278A1580018016801507
:10107000801180018017801580118A1146278A15FA
:1010800080010016801580118001801580118A1161
:1010900046278A1580018015801100168015801161
:1010A0008A1146278A158001801580110016801646
:1010B00000178017801580118A1146278A15013084
:1010C000A10008000313831287018316860187019C
:1010D0000730880006308312B80000200130EC0091
:1010E000E6200C30EC00E6200830EC00E62028304A
:1010F000B8000B30B9008F30BA000B30BB004D3058
:10110000BC000B30BD006E30BE000B30BF00B030F5
:10111000C0000B30C10036240630B800D123803027
:10112000AF004030AE003230B800B021323003138F
:101130008312B8008A11B2258A1593289E283A3066
:1011400003138312C3008A110A258A157008963A80
:10115000031DDB283A08031DDB280130B900B80164
:1011600080303806F0008030063A70020318CC2830
:1011700038083C3FC2003A30C3008A110A258A155C
:1011800042088400700880003A080319CA28BB0A84
:10119000B901CC28B80AB0283908013A031DDA2869
:1011A0003C30C3000530C4002F2270084106031DE7
:1011B000DA28E528E428BB0A3B08083C0318E428A1
:1011C0008A11EA268A15BB019F280800031383129F
:1011D000200884006C080319ED2880110011801389
:1011E000001380120012EC1B80176C1B0017EC1A06
:1011F00080166C1A00162108031900290011012914
:101200000015801501256C080319062980110011AD
:101210008013001380120012EC1980176C1900174C
:10122000EC1880166C1800162108031919290011F2
:101230001A29001580150125801121080319242978
:101240008A1146278A152529F32408004E300313F6
:101250008312D2000230F4004C08F0000030F01B82
:10126000FF30F100740803193A29F00DF10D7010E8
:10127000FF3F33297008D3007108D400CD018030BE
:101280004D06F0008030043A7002031864293430AF
:10129000FB00FF30FA00FB0B4E295129FA0B4E29B7
:1012A0004B29CF30FA00FA0B532900004D085207A2
:1012B000D5004D085307E500A62403135508840004
:1012C00070088000CD0A3F294E08F0004F08F10059
:1012D0005008F2005108F30008007F298030031302
:1012E0008312E5009229C030E50092299430E50090
:1012F0009229D430E50092298030E5009229031329
:1013000083126508013A03196E296508023A031928
:1013100073296508033A031976296508043A031905
:1013200079297C296603F0006508F0077008E5005C
:101330007008EC00E620A101E80168086707840056
:101340000008F00070080319AD29680867078400D9
:101350000008E9009124E80A9D290130A100080055
:101360003B3003138312C3008A110A258A157008C3
:10137000963A031DBE293B080319BF29B029013045
:10138000BA00B90180303906F0008030063A7002A8
:101390000318DD2939083807BC003B30C3008A1127
:1013A0000A258A153C088400700880003B08031950
:1013B000DB29BA01DD29B90AC2293A080319EF2944
:1013C0003808C3000530C4002F22053038078400D8
:1013D0000008F20070087206031DEF290800B0290A
:1013E00008004D3003138312D2000230F4004C0881
:1013F000F0000030F01BFF30F10074080319052ADB
:10140000F00DF10D7010FF3FFE297008D300710838
:10141000D400D10180305106F0008030043A7002CF
:1014200003182E2A3430FB00FF30FA00FB0B192A78
:101430001C2AFA0B192A162ACF30FA00FA0B1E2A98
:10144000000051085307E5005108520784000008C6
:10145000E600042403138312D10A0A2A0800FF308D
:1014600003138312C900C50180304506F0008030A7
:101470004406700203185B2A4508430784000008ED
:10148000C800C60180304606F0008030083A70027D
:101490000318592A4908C700C90D4910C81F512A05
:1014A000C90AC80D4810C71F572A8D30C906C60A79
:1014B000422AC50A342AC60180304606F000803030
:1014C000083A700203186E2A4908C700C90D49106E
:1014D000C71F6C2A8D30C906C60A5C2A4908F0006D
:1014E0000800832A803003138312E900962AC03053
:1014F000E900962A9430E900962AD430E900962A29
:101500008030E900962A031383126908013A03190F
:10151000722A6908023A0319772A6908033A0319FB
:101520007A2A6908043A03197D2A802A6A03F0009E
:101530006908F0077008E9000130A1007008EC00AC
:10154000E620A1016B08EC00E6200130A1000800B4
:1015500003138312D00180305006F00080304F0614
:1015600070020318D82A4C08E5004D08E600500820
:101570004E0784000008E7000430F00070080319EB
:10158000C52AE70CE713FF3FBF2A0F30E705072303
:10159000CD0A4C08E5004D08E60050084E078400CF
:1015A0000008E7000F30E7050723CD0AD00AAB2A71
:1015B000080003138312E4016408503FF20064083A
:1015C0004E07F0004F080318013FF1007008A40017
:1015D0007108A3000A08A200FA24F00022088A0079
:1015E00072088400700880006408F000E40A700843
:1015F000503F84000008F0007008031DDC2A4C08EE
:10160000E5004D08E6005030E7006D2108000313A7
:1016100083126508E9006608EA0080306706F0007A
:1016200080300A3A700203181C2B6708303FF00024
:101630007008F100F201242B6708413FF0000A30E6
:10164000F0027008F100F2017108EB00712208004D
:1016500000340034003400340034003400340034EA
:1016600000340034003400340034003400340034DA
:1016700000340034003400340034003400340034CA
:1016800000340034003400340034003400340034BA
:1016900000340034003400340800003400340034D6
:1016A000003400340034003400340034003400349A
:1016B000003400340034003400340034003400348A
:1016C000003400340034003400340034003400347A
:1016D0000034003400340034003408000034003496
:1016E000003400340034003400340034003400345A
:1016F000003400340034003400340034003400344A
:101700000034003400340034003400340034003439
:101710000034003400340034003400340800003455
:101720000034003400340034003400340034003419
:101730000034003400340034003400340034003409
:1017400000340034003400340034003400340034F9
:101750000034003400340034003400340034080015
:1017600000340034003400340034003400340034D9
:1017700000340034003400340034003400340034C9
:1017800000340034003400340034003400340034B9
:1017900000340034003400340034003400340034A9
:1017A000080003138312B9013808840000000408FC
:1017B000AD00841700148A11EA268A157008031DEB
:1017C000EA2BB90A3908643C0318E92B0130F00010
:1017D0000800DB2BF0010800343003138312FB00F8
:1017E000FF30FA00FB0BF52BF82BFA0BF52BF22B45
:1017F000CF30FA00FA0BFA2B00004C08403FE5000E
:101800004D08E600042408000000031783168C1C12
:101810000B2C0000052C03138312650803178D00A1
:101820000313660803178C0083168C130C158B1397
:1018300055308D00AA308D008C148B170C110800C8
:10184000343003138312FB00FF30FA00FB0B292C0A
:101850002C2CFA0B292C262CCF30FA00FA0B2E2C2C
:1018600000004C08403FE500A62408000313831243
:101870003808B0003908B1003A08A5003B08A600B6
:101880003C08A7003D08A8003E08A9003F08AA00A0
:101890004008AB004108AC000800433468346134B0
:1018A0006E346E3465346C342034303478343034F3
:1018B000583420345234653473346534743400340D
:1018C000080049346E34763461346C3469346434DD
:1018D0002034503461347334733443346F3464349B
:1018E000653400340800533474346F347234653412
:1018F0002034503461347334733443346F3464347B
:101900006534003408004D34613473347434653404
:101910007234203452346534733465347434003492
:10192000080003138312A1016908EC00E6200130CE
:10193000A100080043346F346D3470346C34653466
:101940007434653464342134003408000313831282
:10195000650803178D0083168C130C1483120C0872
:10196000F000080045346E34743472347934203415
:101970004B34653479343A340034080043346134EC
:101980006E34633465346C3465346434213400342B
:1019900008004334683461346E346E3465346C341A
:1019A0003A340034080043346F346D346D3461349C
:1019B0006E34643400340800063003138312FA00D6
:1019C000FA0BE02C00000800413462346F347234AA
:1019D00074343F340034080043346F346434653465
:1019E0003A3400340800213003138312FA00FA0B52
:1019F000F72C08000313831223088A0024088200AE
:101A00000800000000000800FF3FFF3FFF3FFF3FCE
:02400E00723FFF
:00000001FF
