:10000000DF29FF3FFF3FFF3F031383124208F00049
:100010004308F100F201F301FF30F005FF30F10574
:100020000030F205F3057008C5007108C6004008ED
:10003000F0004108F1004208F2004308F300FF30ED
:10004000F005FF30F1050030F205F3057008C70038
:100050007108C800C40180304406F0008030103AB6
:100060007002031889280130F4004408F0000030C1
:10007000F01BFF30F100740803194328F00DF10D57
:100080007010FF3F3C282C08F0072D080318013F93
:10009000F1077008A2007108A1000A08A000D3248B
:1000A000F00020088A00A20A0319A10AD324F10053
:1000B00020088A004508F0064608F1067008C500C9
:1000C0007108C6007008C9007108CA00FF204708FF
:1000D000F0064808F1067008C7007108C8007008EB
:1000E0004506F40046087106F5007408C500750859
:1000F000C6007408F0067508F1067008C70071089C
:10010000C80070087406C50075087106C600C40AE8
:100110002B2847084506F00046084806F1007008FD
:10012000C5007108C60070084706F6004808710649
:10013000F7007608C7007708C80076087006F40054
:1001400071087706F5007408C5007508C6002030F0
:100150002C07F0002D080318013F003FF100700844
:10016000A2007108A1000A08A000D324F000200812
:100170008A00A20A0319A10AD324F10020088A00E8
:100180007008F4067108F5067408C5007508C60005
:1001900022302C07F0002D080318013F003FF1002A
:1001A0007008A2007108A1000A08A000D324F00082
:1001B00020088A00A20A0319A10AD324F10020080A
:1001C0008A0070087606FA0077087106FB007A0844
:1001D000C7007B08C8007408F6007508F700F8012E
:1001E000F9017708F3007608F200F001F1017A08CE
:1001F000F0047B08F1040030F204F3040800031358
:1002000083124908F0004A08F1000F307005F3002E
:100210004908F0004A08F100F10CF00CF113F10C60
:10022000F00CF113F10CF00CF113F10CF00CF113D4
:100230000F307005CF004A08F000F1010F30700553
:10024000CE000C30F2004908F0004A08F1007208B4
:1002500003192F29F10CF00CF113FF3F28290F305F
:100260007005CD000130F4007308F0000030F01B81
:10027000FF30F100740803194229F00DF10D7010E0
:10028000FF3F3B292308F00724080318013FF1072B
:100290007008A2007108A1000A08A000D324CB00B6
:1002A00020088A00A20A0319A10AD324CC0020083E
:1002B0008A000130F4004F08F0000030F01BFF30DE
:1002C000F100740803196929F00DF10D7010FF3F5A
:1002D00062292508F00726080318013FF107700876
:1002E000A2007108A1000A08A000D324F000200891
:1002F0008A00A20A0319A10AD324F10020088A0067
:100300007008CB0771080318013FCC070130F400D7
:100310004E08F0000030F01BFF30F10074080319A4
:100320009629F00DF10D7010FF3F8F292708F00777
:1003300028080318013FF1077008A2007108A10006
:100340000A08A000D324F00020088A00A20A03199A
:10035000A10AD324F10020088A007008CB06710896
:10036000CC060130F4004D08F0000030F01BFF30E7
:10037000F10074080319C129F00DF10D7010FF3F51
:10038000BA292908F0072A080318013FF107700865
:10039000A2007108A1000A08A000D324F0002008E0
:1003A0008A00A20A0319A10AD324F10020088A00B6
:1003B0004B08F0074C080318013FF107080006300E
:1003C00003138312FC00FF30FB00FF30FA00FC0B2C
:1003D000EA29F129FB0BED29F029FA0BED29EA298D
:1003E000E7291A30FB00FF30FA00FB0BF829FB2944
:1003F000FA0BF829F5294230FA00FA0BFD298B0196
:1004000083169F01073083129900831681010430FF
:1004100095000430850083128501753083168F00A6
:1004200005308312B200BF248630B2000330B3001F
:10043000AB30B4000330B5000E30B6000430B70066
:10044000CC30B8000330B900ED30BA000330BB0047
:1004500095242C237008AE007108AF007208B0001C
:100460007308B1000B166400630000004130FB000C
:10047000FF30FA00FB0B3D2A402AFA0B3D2A3A2AAC
:10048000C330FA00FA0B422A00000030051901308F
:10049000F4007408013A031D692A2E08B2002F08DF
:1004A000B3003008B4003108B5001030B6006C223B
:1004B0007008AE007108AF007208B0007308B10098
:1004C0007008B2007108B3007208B4007308B50078
:1004D0005E238B10332A6B2A031383120516BE0189
:1004E000B20A0319B30A0319B40A0319B50A393059
:1004F000BF003208C0003308C1003408C20035080C
:10050000C30004203F088400700880007108840A3A
:1005100080007208840A80007308840A80003930E1
:10052000C0000530C100EA227008BF003930C000A9
:100530000630C100642470080319702A8030003A24
:10054000F0008030360670020318E02A9630C000B2
:100550002F240D30FB00FF30FA00FB0BB02AB32A2A
:10056000FA0BB02AAD2AF330FA00FA0BB52A0000D4
:10057000B701B80180303806F00080307002031DEA
:10058000C32A063037020318DE2A3708393F8400B1
:100590000008C0002F240D30FB00FF30FA00FB0BD9
:1005A000D22AD52AFA0BD22ACF2AF330FA00FA0B34
:1005B000D72A0000B70A0319B80ABA2AB6039E2A36
:1005C00005123208F0003308F1003408F200350853
:1005D000F3000800FF3003138312C600C20180300D
:1005E0004206F0008030410670020318162B4208C4
:1005F000400784000008C500C30180304306F000B6
:100600008030083A70020318142B4608C400C60D47
:100610004610C51F0C2BC60AC50D4510C41F122B52
:100620008D30C606C30AFD2AC20AEF2AC3018030F4
:100630004306F0008030083A70020318292B460860
:10064000C400C60D4610C41F272B8D30C606C30A32
:10065000172B4608F0000800333003138312B7004D
:10066000B20180303206F0008030043A7002031884
:10067000552B3430FB00FF30FA00FB0B402B432B93
:10068000FA0B402B3D2BCF30FA00FA0B452B000024
:1006900032083707B8003208C000C924831238086E
:1006A000840070088000B20A312B3308F00034084F
:1006B000F1003508F2003608F30008003230031369
:1006C0008312B700B60180303606F0008030043A5D
:1006D00070020318852B3430FB00FF30FA00FB0B4F
:1006E000722B752BFA0B722B6F2BCF30FA00FA0B93
:1006F000772B00003608C000360837078400000852
:10070000C1004A248312B60A632B08000034003467
:100710000034003400340034003400340034003439
:100720000034003400340034003400340034003429
:100730000034003400340034003400340034003419
:100740000034003400340034003400340034003409
:100750000034003408000034003400340034003425
:1007600000340034003400340034003400340034E9
:1007700000340034003400340034003400340034D9
:1007800000340034003400340034003400340034C9
:1007900000340034003408000034003400340034E5
:1007A00000340034003400340034003400340034A9
:1007B0000034003400340034003400340034003499
:1007C0000034003400340034003400340034003489
:1007D00000340034003400340800003400340034A5
:1007E0000034003400340034003400340034003469
:1007F0000034003400340034003400340034003459
:100800000034003400340034003400340034003448
:100810000034003400340034003408000034003464
:100820000034003400340034003400340034003428
:100830000034003400340034003400340034003418
:100840000034003400340034003400340034003408
:1008500000340034003400340034003408008030A8
:1008600003138312C1000130C9007E240130C90086
:100870007E24C9017E244108003C0318462C400810
:100880004105C9007E24C10CC1133B2C2B088400F8
:10089000801208000000031383169C1C512C0000DA
:1008A0004B2C8312400883169B0083124108831649
:1008B0009A009C131C158B1355309D00AA309D0087
:1008C0009C148B171C1108008030003A031383120C
:1008D000F00080304106700203187B2C4008840031
:1008E0000008F1007108963A031D782CF001080009
:1008F000C103C00A642C0130F00008000313831206
:100900002B0884004908003A031D882C8016892C86
:100910008012AC24AC244908003A031D912C8012AB
:10092000922C8016AC24AC240800031383123208E6
:10093000AC003308AD003408A3003508A400360825
:10094000A5003708A6003808A7003908A8003A080B
:10095000A9003B08AA000800023003138312FB0021
:10096000FF30FA00FB0BB52CB82CFA0BB52CB22CCF
:100970004830FA00FA0BBA2C0000000008000313FC
:1009800083123208840000000408AB008417801230
:10099000080003138312400883169B009C131C1449
:1009A0001A08F00008000313831221088A002208A5
:1009B00082000800FF3FFF3FFF3FFF3FFF3FFF3F39
:02400E0004307C
:00000001FF
